{
  "_format": "hh-sol-artifact-1",
  "contractName": "Lottery",
  "sourceName": "contracts/Lottery.sol",
  "abi": [
    {
      "inputs": [],
      "stateMutability": "payable",
      "type": "constructor"
    },
    {
      "anonymous": false,
      "inputs": [
        {
          "indexed": false,
          "internalType": "address",
          "name": "player",
          "type": "address"
        }
      ],
      "name": "playerAttended",
      "type": "event"
    },
    {
      "anonymous": false,
      "inputs": [
        {
          "indexed": false,
          "internalType": "uint256",
          "name": "prize",
          "type": "uint256"
        },
        {
          "indexed": false,
          "internalType": "address",
          "name": "winner",
          "type": "address"
        }
      ],
      "name": "winnerChosen",
      "type": "event"
    },
    {
      "inputs": [],
      "name": "attendLottery",
      "outputs": [],
      "stateMutability": "payable",
      "type": "function"
    },
    {
      "inputs": [],
      "name": "getBalance",
      "outputs": [
        {
          "internalType": "uint256",
          "name": "",
          "type": "uint256"
        }
      ],
      "stateMutability": "view",
      "type": "function"
    },
    {
      "inputs": [],
      "name": "getIndex",
      "outputs": [
        {
          "internalType": "address[]",
          "name": "",
          "type": "address[]"
        }
      ],
      "stateMutability": "view",
      "type": "function"
    },
    {
      "inputs": [],
      "name": "getLottery",
      "outputs": [
        {
          "components": [
            {
              "internalType": "uint256",
              "name": "index",
              "type": "uint256"
            },
            {
              "internalType": "address",
              "name": "owner",
              "type": "address"
            },
            {
              "internalType": "uint256",
              "name": "time",
              "type": "uint256"
            }
          ],
          "internalType": "struct Lottery.lottery",
          "name": "",
          "type": "tuple"
        }
      ],
      "stateMutability": "view",
      "type": "function"
    },
    {
      "inputs": [],
      "name": "getOwner",
      "outputs": [
        {
          "internalType": "address",
          "name": "",
          "type": "address"
        }
      ],
      "stateMutability": "view",
      "type": "function"
    },
    {
      "inputs": [],
      "name": "owner",
      "outputs": [
        {
          "internalType": "address",
          "name": "",
          "type": "address"
        }
      ],
      "stateMutability": "view",
      "type": "function"
    },
    {
      "inputs": [],
      "name": "pastBlockTime",
      "outputs": [
        {
          "internalType": "uint256",
          "name": "",
          "type": "uint256"
        }
      ],
      "stateMutability": "view",
      "type": "function"
    },
    {
      "inputs": [],
      "name": "randomWinner",
      "outputs": [],
      "stateMutability": "nonpayable",
      "type": "function"
    },
    {
      "inputs": [],
      "name": "winner",
      "outputs": [
        {
          "internalType": "address",
          "name": "",
          "type": "address"
        }
      ],
      "stateMutability": "view",
      "type": "function"
    }
  ],
  "bytecode": "0x608060405260006003556000600455336000806101000a81548173ffffffffffffffffffffffffffffffffffffffff021916908373ffffffffffffffffffffffffffffffffffffffff1602179055506110d18061005d6000396000f3fe6080604052600436106100865760003560e01c80638da5cb5b116100595780638da5cb5b14610137578063cbc2cce714610162578063dfbf53ae1461018d578063f6e0133f146101b8578063f994709c146101c257610086565b806312065fe01461008b57806358d02b09146100b657806381045ead146100e1578063893d20e81461010c575b600080fd5b34801561009757600080fd5b506100a06101d9565b6040516100ad9190610acc565b60405180910390f35b3480156100c257600080fd5b506100cb6101f8565b6040516100d89190610acc565b60405180910390f35b3480156100ed57600080fd5b506100f66101fe565b6040516101039190610bd7565b60405180910390f35b34801561011857600080fd5b5061012161031a565b60405161012e9190610c08565b60405180910390f35b34801561014357600080fd5b5061014c610343565b6040516101599190610c08565b60405180910390f35b34801561016e57600080fd5b50610177610367565b6040516101849190610c74565b60405180910390f35b34801561019957600080fd5b506101a2610428565b6040516101af9190610c08565b60405180910390f35b6101c061044e565b005b3480156101ce57600080fd5b506101d76106fb565b005b60003073ffffffffffffffffffffffffffffffffffffffff1631905090565b60055481565b606060008054906101000a900473ffffffffffffffffffffffffffffffffffffffff1673ffffffffffffffffffffffffffffffffffffffff163373ffffffffffffffffffffffffffffffffffffffff161461028e576040517f08c379a000000000000000000000000000000000000000000000000000000000815260040161028590610d12565b60405180910390fd5b600180548060200260200160405190810160405280929190818152602001828054801561031057602002820191906000526020600020905b8160009054906101000a900473ffffffffffffffffffffffffffffffffffffffff1673ffffffffffffffffffffffffffffffffffffffff16815260200190600101908083116102c6575b5050505050905090565b60008060009054906101000a900473ffffffffffffffffffffffffffffffffffffffff16905090565b60008054906101000a900473ffffffffffffffffffffffffffffffffffffffff1681565b61036f6109d5565b600660003373ffffffffffffffffffffffffffffffffffffffff1673ffffffffffffffffffffffffffffffffffffffff168152602001908152602001600020604051806060016040529081600082015481526020016001820160009054906101000a900473ffffffffffffffffffffffffffffffffffffffff1673ffffffffffffffffffffffffffffffffffffffff1673ffffffffffffffffffffffffffffffffffffffff168152602001600282015481525050905090565b600260009054906101000a900473ffffffffffffffffffffffffffffffffffffffff1681565b6000600660003373ffffffffffffffffffffffffffffffffffffffff1673ffffffffffffffffffffffffffffffffffffffff168152602001908152602001600020600201544211806104e257506000600660003373ffffffffffffffffffffffffffffffffffffffff1673ffffffffffffffffffffffffffffffffffffffff16815260200190815260200160002060020154145b90506002341015610528576040517f08c379a000000000000000000000000000000000000000000000000000000000815260040161051f90610d7e565b60405180910390fd5b80610568576040517f08c379a000000000000000000000000000000000000000000000000000000000815260040161055f90610dea565b60405180910390fd5b6001339080600181540180825580915050600190039060005260206000200160009091909190916101000a81548173ffffffffffffffffffffffffffffffffffffffff021916908373ffffffffffffffffffffffffffffffffffffffff16021790555033600660003373ffffffffffffffffffffffffffffffffffffffff1673ffffffffffffffffffffffffffffffffffffffff16815260200190815260200160002060010160006101000a81548173ffffffffffffffffffffffffffffffffffffffff021916908373ffffffffffffffffffffffffffffffffffffffff1602179055506001808054905061065d9190610e39565b600660003373ffffffffffffffffffffffffffffffffffffffff1673ffffffffffffffffffffffffffffffffffffffff1681526020019081526020016000206000018190555062093a80426106b29190610e6d565b600660003373ffffffffffffffffffffffffffffffffffffffff1673ffffffffffffffffffffffffffffffffffffffff1681526020019081526020016000206002018190555050565b60008054906101000a900473ffffffffffffffffffffffffffffffffffffffff1673ffffffffffffffffffffffffffffffffffffffff163373ffffffffffffffffffffffffffffffffffffffff1614610789576040517f08c379a000000000000000000000000000000000000000000000000000000000815260040161078090610d12565b60405180910390fd5b6002600180549050116107d1576040517f08c379a00000000000000000000000000000000000000000000000000000000081526004016107c890610f0f565b60405180910390fd5b600180549050600360008154809291906107ea90610f2f565b919050556040516020016107fe9190610f99565b6040516020818303038152906040528051906020012060001c6108219190610fe3565b6004819055506006600060016004548154811061084157610840611014565b5b9060005260206000200160009054906101000a900473ffffffffffffffffffffffffffffffffffffffff1673ffffffffffffffffffffffffffffffffffffffff1673ffffffffffffffffffffffffffffffffffffffff16815260200190815260200160002060010160009054906101000a900473ffffffffffffffffffffffffffffffffffffffff16600260006101000a81548173ffffffffffffffffffffffffffffffffffffffff021916908373ffffffffffffffffffffffffffffffffffffffff1602179055507f3712ba2d156a74b1e34eddf2aa86c9122a39910cf8ce90eae3989a277e5074da47600260009054906101000a900473ffffffffffffffffffffffffffffffffffffffff1660405161095d929190611043565b60405180910390a1600260009054906101000a905050600067ffffffffffffffff81111561098e5761098d61106c565b5b6040519080825280602002602001820160405280156109bc5781602001602082028036833780820191505090505b50600190805190602001906109d2929190610a0c565b50565b604051806060016040528060008152602001600073ffffffffffffffffffffffffffffffffffffffff168152602001600081525090565b828054828255906000526020600020908101928215610a85579160200282015b82811115610a845782518260006101000a81548173ffffffffffffffffffffffffffffffffffffffff021916908373ffffffffffffffffffffffffffffffffffffffff16021790555091602001919060010190610a2c565b5b509050610a929190610a96565b5090565b5b80821115610aaf576000816000905550600101610a97565b5090565b6000819050919050565b610ac681610ab3565b82525050565b6000602082019050610ae16000830184610abd565b92915050565b600081519050919050565b600082825260208201905092915050565b6000819050602082019050919050565b600073ffffffffffffffffffffffffffffffffffffffff82169050919050565b6000610b3e82610b13565b9050919050565b610b4e81610b33565b82525050565b6000610b608383610b45565b60208301905092915050565b6000602082019050919050565b6000610b8482610ae7565b610b8e8185610af2565b9350610b9983610b03565b8060005b83811015610bca578151610bb18882610b54565b9750610bbc83610b6c565b925050600181019050610b9d565b5085935050505092915050565b60006020820190508181036000830152610bf18184610b79565b905092915050565b610c0281610b33565b82525050565b6000602082019050610c1d6000830184610bf9565b92915050565b610c2c81610ab3565b82525050565b606082016000820151610c486000850182610c23565b506020820151610c5b6020850182610b45565b506040820151610c6e6040850182610c23565b50505050565b6000606082019050610c896000830184610c32565b92915050565b600082825260208201905092915050565b7f4f6e6c792061646d696e2063616e2063616c6c20746869732066756e6374696f60008201527f6e00000000000000000000000000000000000000000000000000000000000000602082015250565b6000610cfc602183610c8f565b9150610d0782610ca0565b604082019050919050565b60006020820190508181036000830152610d2b81610cef565b9050919050565b7f52657175697265206174206c6561737420322077656920746f20617474656e64600082015250565b6000610d68602083610c8f565b9150610d7382610d32565b602082019050919050565b60006020820190508181036000830152610d9781610d5b565b9050919050565b7f43616e20617474656e6420312074696d657320706572207765656b0000000000600082015250565b6000610dd4601b83610c8f565b9150610ddf82610d9e565b602082019050919050565b60006020820190508181036000830152610e0381610dc7565b9050919050565b7f4e487b7100000000000000000000000000000000000000000000000000000000600052601160045260246000fd5b6000610e4482610ab3565b9150610e4f83610ab3565b925082821015610e6257610e61610e0a565b5b828203905092915050565b6000610e7882610ab3565b9150610e8383610ab3565b9250827fffffffffffffffffffffffffffffffffffffffffffffffffffffffffffffffff03821115610eb857610eb7610e0a565b5b828201905092915050565b7f52657175697265206d6f7265207468616e203220706c61796572730000000000600082015250565b6000610ef9601b83610c8f565b9150610f0482610ec3565b602082019050919050565b60006020820190508181036000830152610f2881610eec565b9050919050565b6000610f3a82610ab3565b91507fffffffffffffffffffffffffffffffffffffffffffffffffffffffffffffffff821415610f6d57610f6c610e0a565b5b600182019050919050565b6000819050919050565b610f93610f8e82610ab3565b610f78565b82525050565b6000610fa58284610f82565b60208201915081905092915050565b7f4e487b7100000000000000000000000000000000000000000000000000000000600052601260045260246000fd5b6000610fee82610ab3565b9150610ff983610ab3565b92508261100957611008610fb4565b5b828206905092915050565b7f4e487b7100000000000000000000000000000000000000000000000000000000600052603260045260246000fd5b60006040820190506110586000830185610abd565b6110656020830184610bf9565b9392505050565b7f4e487b7100000000000000000000000000000000000000000000000000000000600052604160045260246000fdfea2646970667358221220197a74213e95b8b15016e7970a9a1ea50c03ea53fdaeb71f124c967f9245522464736f6c63430008090033",
  "linkReferences": {},
  "deployedLinkReferences": {}
}